{
  "_format": "hh-sol-artifact-1",
  "contractName": "UniV2TWAP",
  "sourceName": "contracts/UniV2TWAP.sol",
  "abi": [
    {
      "inputs": [
        {
          "internalType": "contract IReliquary",
          "name": "_reliquary",
          "type": "address"
        }
      ],
      "stateMutability": "nonpayable",
      "type": "constructor"
    },
    {
      "anonymous": false,
      "inputs": [
        {
          "components": [
            {
              "internalType": "address",
              "name": "pair",
              "type": "address"
            },
            {
              "internalType": "bool",
              "name": "zero",
              "type": "bool"
            },
            {
              "internalType": "uint256",
              "name": "startBlock",
              "type": "uint256"
            },
            {
              "internalType": "uint256",
              "name": "endBlock",
              "type": "uint256"
            }
          ],
          "indexed": false,
          "internalType": "struct UniV2TWAP.TWAPParams",
          "name": "params",
          "type": "tuple"
        },
        {
          "indexed": false,
          "internalType": "uint224",
          "name": "cumulativePrice",
          "type": "uint224"
        }
      ],
      "name": "TWAP",
      "type": "event"
    },
    {
      "inputs": [
        {
          "components": [
            {
              "internalType": "address",
              "name": "pair",
              "type": "address"
            },
            {
              "internalType": "bool",
              "name": "zero",
              "type": "bool"
            },
            {
              "internalType": "uint256",
              "name": "startBlock",
              "type": "uint256"
            },
            {
              "internalType": "uint256",
              "name": "endBlock",
              "type": "uint256"
            }
          ],
          "internalType": "struct UniV2TWAP.TWAPParams",
          "name": "params",
          "type": "tuple"
        }
      ],
      "name": "getPrice",
      "outputs": [
        {
          "internalType": "uint224",
          "name": "",
          "type": "uint224"
        }
      ],
      "stateMutability": "view",
      "type": "function"
    },
    {
      "inputs": [
        {
          "components": [
            {
              "internalType": "address",
              "name": "pair",
              "type": "address"
            },
            {
              "internalType": "bool",
              "name": "zero",
              "type": "bool"
            },
            {
              "internalType": "uint256",
              "name": "startBlock",
              "type": "uint256"
            },
            {
              "internalType": "uint256",
              "name": "endBlock",
              "type": "uint256"
            }
          ],
          "internalType": "struct UniV2TWAP.TWAPParams",
          "name": "params",
          "type": "tuple"
        }
      ],
      "name": "paramsHash",
      "outputs": [
        {
          "internalType": "bytes32",
          "name": "hash",
          "type": "bytes32"
        }
      ],
      "stateMutability": "pure",
      "type": "function"
    },
    {
      "inputs": [
        {
          "internalType": "bytes32",
          "name": "",
          "type": "bytes32"
        }
      ],
      "name": "priceMap",
      "outputs": [
        {
          "internalType": "uint224",
          "name": "",
          "type": "uint224"
        }
      ],
      "stateMutability": "view",
      "type": "function"
    },
    {
      "inputs": [
        {
          "components": [
            {
              "internalType": "address",
              "name": "pair",
              "type": "address"
            },
            {
              "internalType": "bool",
              "name": "zero",
              "type": "bool"
            },
            {
              "internalType": "uint256",
              "name": "startBlock",
              "type": "uint256"
            },
            {
              "internalType": "uint256",
              "name": "endBlock",
              "type": "uint256"
            }
          ],
          "internalType": "struct UniV2TWAP.TWAPParams",
          "name": "params",
          "type": "tuple"
        },
        {
          "internalType": "address",
          "name": "prover",
          "type": "address"
        },
        {
          "internalType": "bytes",
          "name": "startProof",
          "type": "bytes"
        },
        {
          "internalType": "bytes",
          "name": "endProof",
          "type": "bytes"
        }
      ],
      "name": "submitPrice",
      "outputs": [],
      "stateMutability": "nonpayable",
      "type": "function"
    }
  ],
  "bytecode": "0x60a060405234801561001057600080fd5b5060405161112138038061112183398101604081905261002f91610040565b6001600160a01b0316608052610070565b60006020828403121561005257600080fd5b81516001600160a01b038116811461006957600080fd5b9392505050565b60805161109661008b600039600061019d01526110966000f3fe608060405234801561001057600080fd5b506004361061004c5760003560e01c80630f115dc7146100515780635ca6246b14610066578063c8507cbd14610096578063d6167cf2146100bf575b600080fd5b61006461005f366004610be1565b6100e0565b005b610079610074366004610c75565b61039f565b6040516001600160e01b0390911681526020015b60405180910390f35b6100796100a4366004610c91565b6000602081905290815260409020546001600160e01b031681565b6100d26100cd366004610c75565b6103cd565b60405190815260200161008d565b85606001518660400151106101625760405162461bcd60e51b815260206004820152602260248201527f7374617274426c6f636b206d757374206265206265666f726520656e64426c6f60448201527f636b00000000000000000000000000000000000000000000000000000000000060648201526084015b60405180910390fd5b6040517f1dec844b0000000000000000000000000000000000000000000000000000000081526001600160a01b0386811660048301526000917f000000000000000000000000000000000000000000000000000000000000000090911690631dec844b9060240160e060405180830381865afa1580156101e6573d6000803e3d6000fd5b505050506040513d601f19601f8201168201806040525081019061020a9190610ccb565b805190915067ffffffffffffffff161580159061022957508060400151155b6102755760405162461bcd60e51b815260206004820152601760248201527f496e76616c69642070726f7665722070726f76696465640000000000000000006044820152606401610159565b600080610292888a604001518b600001518c602001518b8b6103fd565b915091506000806102b38a8c606001518d600001518e602001518b8b6103fd565b909250905060006102c48483610db8565b6102ce8685610db8565b6102d89190610dcf565b90507f44a13f67cfeb704d98587274c96835d1f2b56ae763edea5249a4552fac20e7d18c8260405161034a92919082516001600160a01b0316815260208084015115159082015260408084015190820152606092830151928101929092526001600160e01b0316608082015260a00190565b60405180910390a18060008061035f8f6103cd565b815260200190815260200160002060006101000a8154816001600160e01b0302191690836001600160e01b03160217905550505050505050505050505050565b60008060006103ad846103cd565b81526020810191909152604001600020546001600160e01b031692915050565b6000816040516020016103e09190610df1565b604051602081830303815290604052805190602001209050919050565b60008060008561040e57600a610411565b60095b90506000896001600160a01b031663bacf238d878760006040518463ffffffff1660e01b815260040161044693929190610e27565b6000604051808303816000875af1158015610465573d6000803e3d6000fd5b505050506040513d6000823e601f3d908101601f1916820160405261048d9190810190610e5f565b905080516003146105065760405162461bcd60e51b815260206004820152602860248201527f70726f7665722072657475726e656420696e636f72656374206e756d6265722060448201527f6f662066616374730000000000000000000000000000000000000000000000006064820152608401610159565b61050f896108f4565b8160008151811061052257610522610fec565b6020026020010151602001511461057b5760405162461bcd60e51b815260206004820152601e60248201527f66697273742066616374206973206e6f7420626c6f636b2068656164657200006044820152606401610159565b60008160008151811061059057610590610fec565b60200260200101516040015190506106136040518061016001604052806000801916815260200160006001600160a01b031681526020016000801916815260200160008019168152602001600080191681526020016000815260200160008152602001600081526020016000815260200160008019168152602001600081525090565b6020820190508061010001519450896001600160a01b03168360018151811061063e5761063e610fec565b6020026020010151600001516001600160a01b0316146106a05760405162461bcd60e51b815260206004820152601660248201527f6661637431206163636f756e74206d69736d61746368000000000000000000006044820152606401610159565b6106aa848c61096f565b836001815181106106bd576106bd610fec565b602002602001015160200151146107285760405162461bcd60e51b815260206004820152602960248201527f70726f7665722072657475726e656420756e65787065637465642066616374206044820152687369676e617475726560b81b6064820152608401610159565b61074f8360018151811061073e5761073e610fec565b6020026020010151604001516109e2565b9550896001600160a01b03168360028151811061076e5761076e610fec565b6020026020010151600001516001600160a01b0316146107d05760405162461bcd60e51b815260206004820152601660248201527f6661637432206163636f756e74206d69736d61746368000000000000000000006044820152606401610159565b6107db60088c61096f565b836002815181106107ee576107ee610fec565b602002602001015160200151146108595760405162461bcd60e51b815260206004820152602960248201527f70726f7665722072657475726e656420756e65787065637465642066616374206044820152687369676e617475726560b81b6064820152608401610159565b60006108718460028151811061073e5761073e610fec565b90506dffffffffffffffffffffffffffff80821690607083901c1660e083901c600061089d828b610db8565b905060008e6108b9576108b484607087901b610dcf565b6108c7565b6108c785607086901b610dcf565b90506108d38282611002565b6108dd908d611021565b9b5050505050505050505050965096945050505050565b60006109696000610954846040805160208101829052600b60608201527f426c6f636b486561646572000000000000000000000000000000000000000000608080830191909152818301939093528151808203909301835260a001905290565b8051602082012060081b60ff83161792915050565b92915050565b60006109db6000610954858560408051606060208201819052600b60808301527f53746f72616765536c6f7400000000000000000000000000000000000000000060a083015291810184905280820183905260c001604051602081830303815290604052905092915050565b9392505050565b6000602082511115610a365760405162461bcd60e51b815260206004820152601560248201527f64617461206973206e6f7420612075696e7432353600000000000000000000006044820152606401610159565b61096982600081516008610a4a9190611002565b610a5690610100610db8565b610a5f83611039565b901c92915050565b634e487b7160e01b600052604160045260246000fd5b6040516060810167ffffffffffffffff81118282101715610aa057610aa0610a67565b60405290565b60405160a0810167ffffffffffffffff81118282101715610aa057610aa0610a67565b604051601f8201601f1916810167ffffffffffffffff81118282101715610af257610af2610a67565b604052919050565b6001600160a01b0381168114610b0f57600080fd5b50565b8015158114610b0f57600080fd5b600060808284031215610b3257600080fd5b6040516080810181811067ffffffffffffffff82111715610b5557610b55610a67565b6040529050808235610b6681610afa565b81526020830135610b7681610b12565b8060208301525060408301356040820152606083013560608201525092915050565b60008083601f840112610baa57600080fd5b50813567ffffffffffffffff811115610bc257600080fd5b602083019150836020828501011115610bda57600080fd5b9250929050565b60008060008060008060e08789031215610bfa57600080fd5b610c048888610b20565b95506080870135610c1481610afa565b945060a087013567ffffffffffffffff80821115610c3157600080fd5b610c3d8a838b01610b98565b909650945060c0890135915080821115610c5657600080fd5b50610c6389828a01610b98565b979a9699509497509295939492505050565b600060808284031215610c8757600080fd5b6109db8383610b20565b600060208284031215610ca357600080fd5b5035919050565b805160ff81168114610cbb57600080fd5b919050565b8051610cbb81610b12565b600081830360e0811215610cde57600080fd5b610ce6610a7d565b835167ffffffffffffffff81168114610cfe57600080fd5b815260a0601f1983011215610d1257600080fd5b610d1a610aa6565b9150610d2860208501610caa565b8252604084015161ffff81168114610d3f57600080fd5b6020830152610d5060608501610caa565b6040830152610d6160808501610caa565b606083015260a084015163ffffffff81168114610d7d57600080fd5b608083015260208101829052610d9560c08501610cc0565b6040820152949350505050565b634e487b7160e01b600052601160045260246000fd5b600082821015610dca57610dca610da2565b500390565b600082610dec57634e487b7160e01b600052601260045260246000fd5b500490565b81516001600160a01b03168152602080830151151590820152604080830151908201526060808301519082015260808101610969565b6040815282604082015282846060830137600060608483018101919091529115156020820152601f909201601f191690910101919050565b60006020808385031215610e7257600080fd5b825167ffffffffffffffff80821115610e8a57600080fd5b818501915085601f830112610e9e57600080fd5b815181811115610eb057610eb0610a67565b8060051b610ebf858201610ac9565b9182528381018501918581019089841115610ed957600080fd5b86860192505b83831015610fdf57825185811115610ef75760008081fd5b86016060601f19828d038101821315610f105760008081fd5b610f18610a7d565b8a840151610f2581610afa565b81526040848101518c830152928401519289841115610f445760008081fd5b83850194508e603f860112610f5b57600093508384fd5b8b850151935089841115610f7157610f71610a67565b610f818c84601f87011601610ac9565b92508383528e81858701011115610f985760008081fd5b60005b84811015610fb6578581018201518482018e01528c01610f9b565b84811115610fc75760008d86860101525b50810191909152845250509186019190860190610edf565b9998505050505050505050565b634e487b7160e01b600052603260045260246000fd5b600081600019048311821515161561101c5761101c610da2565b500290565b6000821982111561103457611034610da2565b500190565b8051602080830151919081101561105a576000198160200360031b1b821691505b5091905056fea264697066735822122014529b5e9f5e4077ba6a72c1d94773b392d28a0fc99b1520f5f7608fc939550c64736f6c634300080c0033",
  "linkReferences": {},
  "deployedLinkReferences": {}
}